{
  "contractName": "Health",
  "abi": [
    {
      "constant": true,
      "inputs": [
        {
          "name": "",
          "type": "bytes32"
        }
      ],
      "name": "companyAddress",
      "outputs": [
        {
          "name": "",
          "type": "address"
        }
      ],
      "payable": false,
      "stateMutability": "view",
      "type": "function"
    },
    {
      "constant": true,
      "inputs": [
        {
          "name": "",
          "type": "address"
        }
      ],
      "name": "companies",
      "outputs": [
        {
          "name": "",
          "type": "bytes32"
        }
      ],
      "payable": false,
      "stateMutability": "view",
      "type": "function"
    },
    {
      "constant": true,
      "inputs": [],
      "name": "owner",
      "outputs": [
        {
          "name": "",
          "type": "address"
        }
      ],
      "payable": false,
      "stateMutability": "view",
      "type": "function"
    },
    {
      "constant": true,
      "inputs": [
        {
          "name": "",
          "type": "bytes32"
        },
        {
          "name": "",
          "type": "bytes32"
        }
      ],
      "name": "records",
      "outputs": [
        {
          "name": "",
          "type": "bytes32"
        }
      ],
      "payable": false,
      "stateMutability": "view",
      "type": "function"
    },
    {
      "inputs": [],
      "payable": false,
      "stateMutability": "nonpayable",
      "type": "constructor"
    },
    {
      "anonymous": false,
      "inputs": [
        {
          "indexed": true,
          "name": "company",
          "type": "bytes32"
        },
        {
          "indexed": true,
          "name": "companyAddressKey",
          "type": "address"
        }
      ],
      "name": "_CompanyAddressRegistered",
      "type": "event"
    },
    {
      "anonymous": false,
      "inputs": [
        {
          "indexed": true,
          "name": "company",
          "type": "bytes32"
        },
        {
          "indexed": true,
          "name": "companyAddressKey",
          "type": "address"
        }
      ],
      "name": "_CompanyAddressUpdated",
      "type": "event"
    },
    {
      "anonymous": false,
      "inputs": [
        {
          "indexed": true,
          "name": "company",
          "type": "bytes32"
        },
        {
          "indexed": true,
          "name": "companyAddressKey",
          "type": "address"
        }
      ],
      "name": "_CompanyAddressDeregistered",
      "type": "event"
    },
    {
      "anonymous": false,
      "inputs": [
        {
          "indexed": true,
          "name": "company",
          "type": "bytes32"
        },
        {
          "indexed": true,
          "name": "recordHash",
          "type": "bytes32"
        }
      ],
      "name": "_RecordAdded",
      "type": "event"
    },
    {
      "anonymous": false,
      "inputs": [
        {
          "indexed": true,
          "name": "company",
          "type": "bytes32"
        },
        {
          "indexed": true,
          "name": "recordHash",
          "type": "bytes32"
        }
      ],
      "name": "_RecordRemoved",
      "type": "event"
    },
    {
      "constant": false,
      "inputs": [
        {
          "name": "newOwner",
          "type": "address"
        }
      ],
      "name": "changeOwner",
      "outputs": [],
      "payable": false,
      "stateMutability": "nonpayable",
      "type": "function"
    },
    {
      "constant": false,
      "inputs": [
        {
          "name": "company",
          "type": "bytes32"
        },
        {
          "name": "pubKey",
          "type": "address"
        }
      ],
      "name": "registerCompanyAddress",
      "outputs": [],
      "payable": false,
      "stateMutability": "nonpayable",
      "type": "function"
    },
    {
      "constant": false,
      "inputs": [
        {
          "name": "company",
          "type": "bytes32"
        },
        {
          "name": "pubKey",
          "type": "address"
        }
      ],
      "name": "updateCompanyAddress",
      "outputs": [],
      "payable": false,
      "stateMutability": "nonpayable",
      "type": "function"
    },
    {
      "constant": false,
      "inputs": [
        {
          "name": "company",
          "type": "bytes32"
        }
      ],
      "name": "deregisterCompanyAddress",
      "outputs": [],
      "payable": false,
      "stateMutability": "nonpayable",
      "type": "function"
    },
    {
      "constant": false,
      "inputs": [
        {
          "name": "hash",
          "type": "bytes32"
        }
      ],
      "name": "addRecord",
      "outputs": [],
      "payable": false,
      "stateMutability": "nonpayable",
      "type": "function"
    },
    {
      "constant": false,
      "inputs": [
        {
          "name": "hashes",
          "type": "bytes32[]"
        }
      ],
      "name": "addRecords",
      "outputs": [],
      "payable": false,
      "stateMutability": "nonpayable",
      "type": "function"
    },
    {
      "constant": false,
      "inputs": [
        {
          "name": "hash",
          "type": "bytes32"
        }
      ],
      "name": "removeRecord",
      "outputs": [],
      "payable": false,
      "stateMutability": "nonpayable",
      "type": "function"
    },
    {
      "constant": false,
      "inputs": [
        {
          "name": "hashes",
          "type": "bytes32[]"
        }
      ],
      "name": "removeRecords",
      "outputs": [],
      "payable": false,
      "stateMutability": "nonpayable",
      "type": "function"
    },
    {
      "constant": true,
      "inputs": [
        {
          "name": "company",
          "type": "string"
        }
      ],
      "name": "getCompanyAddressFromCompany",
      "outputs": [
        {
          "name": "",
          "type": "address"
        }
      ],
      "payable": false,
      "stateMutability": "view",
      "type": "function"
    },
    {
      "constant": true,
      "inputs": [
        {
          "name": "pubKey",
          "type": "address"
        }
      ],
      "name": "isRegisteredCompanyAddress",
      "outputs": [
        {
          "name": "",
          "type": "bool"
        }
      ],
      "payable": false,
      "stateMutability": "view",
      "type": "function"
    },
    {
      "constant": true,
      "inputs": [
        {
          "name": "company",
          "type": "bytes32"
        }
      ],
      "name": "isRegisteredCompany",
      "outputs": [
        {
          "name": "",
          "type": "bool"
        }
      ],
      "payable": false,
      "stateMutability": "view",
      "type": "function"
    },
    {
      "constant": true,
      "inputs": [
        {
          "name": "pubKey",
          "type": "address"
        },
        {
          "name": "timestamp",
          "type": "uint256"
        },
        {
          "name": "tableId",
          "type": "string"
        },
        {
          "name": "fromAccountId",
          "type": "uint256"
        },
        {
          "name": "data",
          "type": "string"
        }
      ],
      "name": "doesRecordExistForCompany",
      "outputs": [
        {
          "name": "",
          "type": "bool"
        }
      ],
      "payable": false,
      "stateMutability": "view",
      "type": "function"
    }
  ],
  "bytecode": "0x6060604052341561000f57600080fd5b33600360006101000a81548173ffffffffffffffffffffffffffffffffffffffff021916908373ffffffffffffffffffffffffffffffffffffffff16021790555061140e8061005f6000396000f3006060604052600436106100e6576000357c0100000000000000000000000000000000000000000000000000000000900463ffffffff16806307e8d530146100eb5780630bc36d1e146101125780630e80a89f146101395780632ba5501e146101a0578063355e6ce8146101e65780633d88ba221461023b578063571a1d731461028c578063797bbeb4146102b35780638da5cb5b146102f9578063a0b87b201461034e578063a6f9dae11461039e578063aa55ac37146103d7578063b9c1cc2514610431578063c4117d0e14610470578063dfec89101461050d578063f137f56514610598575b600080fd5b34156100f657600080fd5b6101106004808035600019169060200190919050506105f2565b005b341561011d57600080fd5b610137600480803560001916906020019091905050610830565b005b341561014457600080fd5b61015e600480803560001916906020019091905050610990565b604051808273ffffffffffffffffffffffffffffffffffffffff1673ffffffffffffffffffffffffffffffffffffffff16815260200191505060405180910390f35b34156101ab57600080fd5b6101e460048080356000191690602001909190803573ffffffffffffffffffffffffffffffffffffffff169060200190919050506109c3565b005b34156101f157600080fd5b61021d600480803573ffffffffffffffffffffffffffffffffffffffff16906020019091905050610c27565b60405180826000191660001916815260200191505060405180910390f35b341561024657600080fd5b610272600480803573ffffffffffffffffffffffffffffffffffffffff16906020019091905050610c3f565b604051808215151515815260200191505060405180910390f35b341561029757600080fd5b6102b1600480803560001916906020019091905050610c8f565b005b34156102be57600080fd5b6102f760048080356000191690602001909190803573ffffffffffffffffffffffffffffffffffffffff16906020019091905050610df4565b005b341561030457600080fd5b61030c610fb1565b604051808273ffffffffffffffffffffffffffffffffffffffff1673ffffffffffffffffffffffffffffffffffffffff16815260200191505060405180910390f35b341561035957600080fd5b61038060048080356000191690602001909190803560001916906020019091905050610fd7565b60405180826000191660001916815260200191505060405180910390f35b34156103a957600080fd5b6103d5600480803573ffffffffffffffffffffffffffffffffffffffff16906020019091905050610ffc565b005b34156103e257600080fd5b61042f60048080359060200190820180359060200190808060200260200160405190810160405280939291908181526020018383602002808284378201915050505050509190505061109c565b005b341561043c57600080fd5b610456600480803560001916906020019091905050611130565b604051808215151515815260200191505060405180910390f35b341561047b57600080fd5b6104cb600480803590602001908201803590602001908080601f016020809104026020016040519081016040528093929190818152602001838380828437820191505050505050919050506111c0565b604051808273ffffffffffffffffffffffffffffffffffffffff1673ffffffffffffffffffffffffffffffffffffffff16815260200191505060405180910390f35b341561051857600080fd5b61057e600480803573ffffffffffffffffffffffffffffffffffffffff1690602001909190803590602001909190803590602001908201803590602001919091929080359060200190919080359060200190820180359060200191909192905050611266565b604051808215151515815260200191505060405180910390f35b34156105a357600080fd5b6105f060048080359060200190820180359060200190808060200260200160405190810160405280939291908181526020018383602002808284378201915050505050509190505061134e565b005b600080600360009054906101000a900473ffffffffffffffffffffffffffffffffffffffff1673ffffffffffffffffffffffffffffffffffffffff163373ffffffffffffffffffffffffffffffffffffffff1614151561065157600080fd5b8260405180826000191660001916815260200191505060405180910390209150600080836000191660001916815260200190815260200160002060009054906101000a900473ffffffffffffffffffffffffffffffffffffffff169050600073ffffffffffffffffffffffffffffffffffffffff16600080846000191660001916815260200190815260200160002060009054906101000a900473ffffffffffffffffffffffffffffffffffffffff1673ffffffffffffffffffffffffffffffffffffffff161415151561072457600080fd5b600080836000191660001916815260200190815260200160002060006101000a81549073ffffffffffffffffffffffffffffffffffffffff0219169055600160008273ffffffffffffffffffffffffffffffffffffffff1673ffffffffffffffffffffffffffffffffffffffff168152602001908152602001600020600090558073ffffffffffffffffffffffffffffffffffffffff16600160008373ffffffffffffffffffffffffffffffffffffffff1673ffffffffffffffffffffffffffffffffffffffff16815260200190815260200160002054600019167f40b30261aa69701a90a385795a83664c55656525de5927da20d156f15281960060405160405180910390a3505050565b6000600102600160003373ffffffffffffffffffffffffffffffffffffffff1673ffffffffffffffffffffffffffffffffffffffff1681526020019081526020016000205460001916141561088457600080fd5b60026000600160003373ffffffffffffffffffffffffffffffffffffffff1673ffffffffffffffffffffffffffffffffffffffff1681526020019081526020016000205460405180826000191660001916815260200191505060405180910390206000191660001916815260200190815260200160002060008260001916600019168152602001908152602001600020600090558060001916600160003373ffffffffffffffffffffffffffffffffffffffff1673ffffffffffffffffffffffffffffffffffffffff16815260200190815260200160002054600019167f96b5de24ceb5c3fb712306db2dcd8cafae680881f9860663b54e3fc37c2f4c7960405160405180910390a350565b60006020528060005260406000206000915054906101000a900473ffffffffffffffffffffffffffffffffffffffff1681565b600080600360009054906101000a900473ffffffffffffffffffffffffffffffffffffffff1673ffffffffffffffffffffffffffffffffffffffff163373ffffffffffffffffffffffffffffffffffffffff16141515610a2257600080fd5b8360405180826000191660001916815260200191505060405180910390209150600073ffffffffffffffffffffffffffffffffffffffff16600080846000191660001916815260200190815260200160002060009054906101000a900473ffffffffffffffffffffffffffffffffffffffff1673ffffffffffffffffffffffffffffffffffffffff1614151515610ab857600080fd5b600080836000191660001916815260200190815260200160002060009054906101000a900473ffffffffffffffffffffffffffffffffffffffff169050600160008273ffffffffffffffffffffffffffffffffffffffff1673ffffffffffffffffffffffffffffffffffffffff1681526020019081526020016000206000905582600080846000191660001916815260200190815260200160002060006101000a81548173ffffffffffffffffffffffffffffffffffffffff021916908373ffffffffffffffffffffffffffffffffffffffff16021790555083600160008573ffffffffffffffffffffffffffffffffffffffff1673ffffffffffffffffffffffffffffffffffffffff16815260200190815260200160002081600019169055508273ffffffffffffffffffffffffffffffffffffffff1684600019167faad04e54ba67d0e217c973f5220c18d80ca4d4d84e23aec5d2789c70d6a011c060405160405180910390a350505050565b60016020528060005260406000206000915090505481565b600080600160008473ffffffffffffffffffffffffffffffffffffffff1673ffffffffffffffffffffffffffffffffffffffff168152602001908152602001600020546000191614159050919050565b6000600102600160003373ffffffffffffffffffffffffffffffffffffffff1673ffffffffffffffffffffffffffffffffffffffff16815260200190815260200160002054600019161415610ce357600080fd5b8060026000600160003373ffffffffffffffffffffffffffffffffffffffff1673ffffffffffffffffffffffffffffffffffffffff168152602001908152602001600020546040518082600019166000191681526020019150506040518091039020600019166000191681526020019081526020016000206000836000191660001916815260200190815260200160002081600019169055508060001916600160003373ffffffffffffffffffffffffffffffffffffffff1673ffffffffffffffffffffffffffffffffffffffff16815260200190815260200160002054600019167fb2dc3b856e9aec98c4edb96680cdb38118c7ca0534a3dc41b3c5a93b8cfc3dd260405160405180910390a350565b600360009054906101000a900473ffffffffffffffffffffffffffffffffffffffff1673ffffffffffffffffffffffffffffffffffffffff163373ffffffffffffffffffffffffffffffffffffffff16141515610e5057600080fd5b806000600102600160008373ffffffffffffffffffffffffffffffffffffffff1673ffffffffffffffffffffffffffffffffffffffff1681526020019081526020016000205460001916141515610ea657600080fd5b816000808560405180826000191660001916815260200191505060405180910390206000191660001916815260200190815260200160002060006101000a81548173ffffffffffffffffffffffffffffffffffffffff021916908373ffffffffffffffffffffffffffffffffffffffff16021790555082600160008473ffffffffffffffffffffffffffffffffffffffff1673ffffffffffffffffffffffffffffffffffffffff16815260200190815260200160002081600019169055508173ffffffffffffffffffffffffffffffffffffffff1683600019167fbd7879267895bd2bdeeb344e1fe7a7172efe5ed13b389837cab75265612c2dc160405160405180910390a3505050565b600360009054906101000a900473ffffffffffffffffffffffffffffffffffffffff1681565b6002602052816000526040600020602052806000526040600020600091509150505481565b600360009054906101000a900473ffffffffffffffffffffffffffffffffffffffff1673ffffffffffffffffffffffffffffffffffffffff163373ffffffffffffffffffffffffffffffffffffffff1614151561105857600080fd5b80600360006101000a81548173ffffffffffffffffffffffffffffffffffffffff021916908373ffffffffffffffffffffffffffffffffffffffff16021790555050565b600080600102600160003373ffffffffffffffffffffffffffffffffffffffff1673ffffffffffffffffffffffffffffffffffffffff168152602001908152602001600020546000191614156110f157600080fd5b600090505b815181101561112c5761111f828281518110151561111057fe5b90602001906020020151610c8f565b80806001019150506110f6565b5050565b60008073ffffffffffffffffffffffffffffffffffffffff166000808460405180826000191660001916815260200191505060405180910390206000191660001916815260200190815260200160002060009054906101000a900473ffffffffffffffffffffffffffffffffffffffff1673ffffffffffffffffffffffffffffffffffffffff1614159050919050565b6000806000836040518082805190602001908083835b6020831015156111fb57805182526020820191506020810190506020830392506111d6565b6001836020036101000a03801982511681845116808217855250505050505090500191505060405180910390206000191660001916815260200190815260200160002060009054906101000a900473ffffffffffffffffffffffffffffffffffffffff169050919050565b6000808787878787876040518087815260200186868082843782019150508481526020018383808284378201915050965050505050505060405180910390209050600060026000600160008d73ffffffffffffffffffffffffffffffffffffffff1673ffffffffffffffffffffffffffffffffffffffff168152602001908152602001600020546040518082600019166000191681526020019150506040518091039020600019166000191681526020019081526020016000206000836000191660001916815260200190815260200160002054600019161415915050979650505050505050565b600080600102600160003373ffffffffffffffffffffffffffffffffffffffff1673ffffffffffffffffffffffffffffffffffffffff168152602001908152602001600020546000191614156113a357600080fd5b600090505b81518110156113de576113d182828151811015156113c257fe5b90602001906020020151610830565b80806001019150506113a8565b50505600a165627a7a723058205cab90de9166f3e7f869070e96e4d14bf6da76ec34e837ea9afca4c364aebf930029",
  "source": "pragma solidity ^0.4.4;\n\n\ncontract Health {\n  /**\n   * @notice a mapping of companies to companyAddress public keys\n   *\n   * @example\n   * \"Medi Corp\" -> \"0x9L1m03nl0Pc5ns4kh2KL2m\"\n   * companyAddress[companyHash] = Public Key\n   */\n  mapping (bytes32 => address) public companyAddress;\n\n  /**\n   * @notice a mapping of companyAddress public keys and companyHash to companies\n   *\n   * @example\n   * \"0x123...abc\" -> \"Medi Corp\"\n   */\n  mapping (address => bytes32) public companies;\n\n   /**\n    * @notice a mapping of publsher companies to\n    * their hashes of authorized Records\n    *\n    * @example example\n    * records[keccak256(company)][RecordHash] ->RecordHash\n    */\n  mapping (bytes32 => mapping (bytes32 => bytes32)) public records;\n\n  /**\n   * @notice The owner of this contract.\n   */\n  address public owner;\n\n  /**\n   * Events, when triggered, record logs in the blockchain.\n   * Clients can listen on specific events to fetch data.\n   */\n  event _CompanyAddressRegistered(bytes32 indexed company, address indexed companyAddressKey);\n  event _CompanyAddressUpdated(bytes32 indexed company, address indexed companyAddressKey);\n  event _CompanyAddressDeregistered(bytes32 indexed company, address indexed companyAddressKey);\n  event _RecordAdded(bytes32 indexed company, bytes32 indexed recordHash);\n  event _RecordRemoved(bytes32 indexed company, bytes32 indexed recordHash);\n\n  /**\n   * @notice modifier which limits execution\n   * of the function to the owner.\n   */\n  modifier onlyOwner() {\n    if (msg.sender != owner) {\n      revert();\n    }\n\n    // continue with code execution\n    _;\n  }\n\n  /**\n   * @notice modifier which checks if sender is\n   * a registered companyAddress.\n   */\n  modifier isRegistered() {\n    if (companies[msg.sender] == 0) {\n      revert();\n    }\n\n    // continue with code execution\n    _;\n  }\n\n  /**\n   * @notice modifier which checks that\n   * companyAddress doesn't exist.\n   */\n  modifier companyAddressDoesNotExist(address pubKey) {\n    if (companies[pubKey] != 0) {\n      revert();\n    }\n\n    _;\n  }\n\n  /*\n   * @notice The constructor function,\n   * called only once when this contract is initially deployed.\n   */\n  function Health() public {\n    owner = msg.sender;\n  }\n\n  /**\n   * @notice Change owner of contract.\n   * @param newOwner new owner address\n   */\n  function changeOwner(address newOwner) onlyOwner external {\n    owner = newOwner;\n  }\n\n  /**\n   * @notice Register new companyAddress.\n   * Only the owner of the contract can register new companyAddress.\n   * companyAddress public key must not already exist in order to\n   * be added or modified.\n   * @param company pubisher companies\n   * @param pubKey pubisher public key\n   */\n  function registerCompanyAddress(bytes32 company, address pubKey) onlyOwner companyAddressDoesNotExist(pubKey) external {\n    companyAddress[keccak256(company)] = pubKey;\n    companies[pubKey] = company;\n    _CompanyAddressRegistered(company, pubKey);\n  }\n\n  /**\n   * @notice Update new companyAddress.\n   * Only the owner of the contract can update companyAddress.\n   * companyAddress public key must already exist in order to\n   * be modified.\n   * @param company pubisher companies\n   * @param pubKey pubisher public key\n   */\n  function updateCompanyAddress(bytes32 company, address pubKey) onlyOwner external {\n    bytes32 companyHash = keccak256(company);\n    require(companyAddress[companyHash] != address(0));\n\n    // remove old companyAddress key\n    address oldPubKey = companyAddress[companyHash];\n    delete companies[oldPubKey];\n\n    // Update companyAddress pubKey \n    companyAddress[companyHash] = pubKey;\n    companies[pubKey] = company;\n\n   _CompanyAddressUpdated(company, pubKey);\n  }\n\n  /**\n   * @notice Deregister existing companyAddress.\n   * Only contract owner is allowed to deregister.\n   * @param company  public key\n   */\n  function deregisterCompanyAddress(bytes32 company) onlyOwner external {\n    bytes32 companyHash = keccak256(company);\n    address pubKey = companyAddress[companyHash];\n    require(companyAddress[companyHash] != address(0));\n    // order matters here, delete pub from map first.\n    delete companyAddress[companyHash];\n    delete companies[pubKey];\n\n   _CompanyAddressDeregistered(companies[pubKey], pubKey);\n  }\n\n  /**\n   * @notice Allow companyAddress to add a Medicine by the hash of the Medicine information.\n   * @param hash keccak256 hash of Medicine information\n   */\n  function addRecord(bytes32 hash) isRegistered public {\n    records[keccak256(companies[msg.sender])][hash] = hash;\n   _RecordAdded(companies[msg.sender], hash);\n  }\n\n  /**\n   * @notice Allow companyAddress to add multiple Medicines by providing an array of hashes of the Medicine information.\n   * @param hashes an array of hashes of Medicine information\n   */\n  function addRecords(bytes32[] hashes) isRegistered public {\n    for (uint256 i = 0; i < hashes.length; i++) {\n      addRecord(hashes[i]);\n    }\n  }\n\n  /**\n   * @notice Remove Medicine from companyAddress\n   * @param hash keccak256 hash of Medicine information\n   */\n  function removeRecord(bytes32 hash) isRegistered public {\n    delete records[keccak256(companies[msg.sender])][hash];\n   _RecordRemoved(companies[msg.sender], hash);\n  }\n\n  /**\n   * @notice Allow companyAddress to remove multiple Medicines by providing an array of hashes of the Medicine information.\n   * @param hashes an array of hashes of the Medicine information\n   */\n  function removeRecords(bytes32[] hashes) isRegistered public {\n    for (uint256 i = 0; i < hashes.length; i++) {\n      removeRecord(hashes[i]);\n    }\n  }\n\n  /**\n    * @notice Get companyAddress public key from companies name\n    * @param company companies of companyAddress\n    * @return companyAddress public key\n    */\n  function getCompanyAddressFromCompany(string company) public constant returns (address) {\n    return companyAddress[keccak256(company)];\n  }\n\n  /**\n   * @notice Check if companyAddress is registered.\n   * @param pubKey companyAddress public key\n   * @return bool\n   */\n  function isRegisteredCompanyAddress(address pubKey) external constant returns (bool) {\n    return (companies[pubKey] != \"\");\n  }\n\n  /**\n   * @notice Check if companyAddress is registered by companies\n   * @param company pubisher companies\n   * @return bool\n   */\n  function isRegisteredCompany(bytes32 company) external constant returns (bool) {\n    return (companyAddress[keccak256(company)] != address(0));\n  }\n\n  /**\n   * @notice Return true if is Medicine for companyAddress\n   * @param pubKey companyAddress public key\n   * @param timestamp \n   * @param tableId associated with \n   * @param fromAccountId \n   * @param data Optional Params \n   * @return boolean\n   */\n  function doesRecordExistForCompany(\n    address pubKey,\n    uint timestamp,\n    string tableId,\n    uint fromAccountId,\n    string data\n  )\n  external\n  constant\n  returns (bool) \n  {\n    bytes32 hash = keccak256(timestamp, tableId, fromAccountId, data);\n    return (records[keccak256(companies[pubKey])][hash] != \"\");\n  }\n}\n\n",
  "sourcePath": "/home/nick/health/contracts/Health.sol",
  "compiler": {
    "name": "solc",
    "version": "0.4.19+commit.c4cbbb05.Emscripten.clang"
  },
  "schemaVersion": "1.0.1",
  "updatedAt": "2018-02-21T01:13:20.207Z"
}